{
    "abi": [
        {
            "type": "function",
            "name": "dailyInteraction",
            "inputs": [
                {
                    "name": "game",
                    "type": "address",
                    "internalType": "contract IGame"
                },
                {
                    "name": "tokenId",
                    "type": "uint256",
                    "internalType": "uint256"
                }
            ],
            "outputs": [],
            "stateMutability": "nonpayable"
        },
        {
            "type": "function",
            "name": "displayName",
            "inputs": [],
            "outputs": [
                {
                    "name": "",
                    "type": "string",
                    "internalType": "string"
                }
            ],
            "stateMutability": "view"
        },
        {
            "type": "function",
            "name": "functions",
            "inputs": [
                {
                    "name": "",
                    "type": "uint256",
                    "internalType": "uint256"
                }
            ],
            "outputs": [
                {
                    "name": "",
                    "type": "string",
                    "internalType": "string"
                }
            ],
            "stateMutability": "view"
        },
        {
            "type": "function",
            "name": "getProvidedFunctions",
            "inputs": [],
            "outputs": [
                {
                    "name": "",
                    "type": "string[]",
                    "internalType": "string[]"
                }
            ],
            "stateMutability": "view"
        },
        {
            "type": "function",
            "name": "getRequiredStrings",
            "inputs": [],
            "outputs": [
                {
                    "name": "",
                    "type": "string[]",
                    "internalType": "string[]"
                }
            ],
            "stateMutability": "view"
        },
        {
            "type": "function",
            "name": "getSummary",
            "inputs": [],
            "outputs": [
                {
                    "name": "",
                    "type": "tuple",
                    "internalType": "struct ModuleSummary",
                    "components": [
                        {
                            "name": "module",
                            "type": "address",
                            "internalType": "address"
                        },
                        {
                            "name": "functions",
                            "type": "string[]",
                            "internalType": "string[]"
                        },
                        {
                            "name": "required",
                            "type": "string[]",
                            "internalType": "string[]"
                        },
                        {
                            "name": "displayName",
                            "type": "string",
                            "internalType": "string"
                        }
                    ]
                }
            ],
            "stateMutability": "view"
        },
        {
            "type": "function",
            "name": "initialize",
            "inputs": [],
            "outputs": [],
            "stateMutability": "nonpayable"
        },
        {
            "type": "event",
            "name": "Initialized",
            "inputs": [
                {
                    "name": "version",
                    "type": "uint64",
                    "indexed": false,
                    "internalType": "uint64"
                }
            ],
            "anonymous": false
        },
        {
            "type": "error",
            "name": "InvalidInitialization",
            "inputs": []
        },
        {
            "type": "error",
            "name": "NotEnoughTimePassed",
            "inputs": []
        },
        {
            "type": "error",
            "name": "NotInitializing",
            "inputs": []
        }
    ],
    "bytecode": {
        "object": "0x60c060405260116080908152702230b4b63c9024b73a32b930b1ba34b7b760791b60a052600090620000329082620002b6565b5060408051608081018252600b8183019081526a3230b4b63ca0b1ba34b7b760a91b606083015281528151808301909252600c82526b1b185cdd1058dd1a5bdb905d60a21b60208381019190915281019190915262000096906001906002620000ed565b50604080516060810182526010602082019081526f3230b4b63ca4b73a32b930b1ba34b7b760811b92820192909252908152620000d89060029060016200014a565b50348015620000e657600080fd5b5062000382565b82805482825590600052602060002090810192821562000138579160200282015b82811115620001385782518290620001279082620002b6565b50916020019190600101906200010e565b506200014692915062000195565b5090565b82805482825590600052602060002090810192821562000138579160200282015b82811115620001385782518290620001849082620002b6565b50916020019190600101906200016b565b8082111562000146576000620001ac8282620001b6565b5060010162000195565b508054620001c49062000225565b6000825580601f10620001d5575050565b601f016020900490600052602060002090810190620001f59190620001f8565b50565b5b80821115620001465760008155600101620001f9565b634e487b7160e01b600052604160045260246000fd5b600181811c908216806200023a57607f821691505b6020821081036200025b57634e487b7160e01b600052602260045260246000fd5b50919050565b601f821115620002b1576000816000526020600020601f850160051c810160208610156200028c5750805b601f850160051c820191505b81811015620002ad5782815560010162000298565b5050505b505050565b81516001600160401b03811115620002d257620002d26200020f565b620002ea81620002e3845462000225565b8462000261565b602080601f831160018114620003225760008415620003095750858301515b600019600386901b1c1916600185901b178555620002ad565b600085815260208120601f198616915b82811015620003535788860151825594840194600190910190840162000332565b5085821015620003725787850151600019600388901b60f8161c191681555b5050505050600190811b01905550565b610b9880620003926000396000f3fe608060405234801561001057600080fd5b506004361061007d5760003560e01c806373f5c2531161005b57806373f5c253146100ca5780638129fc1c146100d2578063a4bfe388146100d4578063eac0bd90146100e757600080fd5b80634051ddac1461008257806343dc8e77146100a05780634affb260146100b5575b600080fd5b61008a6100fa565b6040516100979190610873565b60405180910390f35b6100a8610389565b60405161009791906108e6565b6100bd610462565b604051610097919061094a565b6100a86104f0565b005b6100d26100e2366004610964565b6105c0565b6100bd6100f536600461099c565b6107a8565b61012e604051806080016040528060006001600160a01b031681526020016060815260200160608152602001606081525090565b6040518060800160405280306001600160a01b031681526020016002805480602002602001604051908101604052809291908181526020016000905b82821015610216578382906000526020600020018054610189906109b5565b80601f01602080910402602001604051908101604052809291908181526020018280546101b5906109b5565b80156102025780601f106101d757610100808354040283529160200191610202565b820191906000526020600020905b8154815290600101906020018083116101e557829003601f168201915b50505050508152602001906001019061016a565b5050505081526020016001805480602002602001604051908101604052809291908181526020016000905b828210156102ed578382906000526020600020018054610260906109b5565b80601f016020809104026020016040519081016040528092919081815260200182805461028c906109b5565b80156102d95780601f106102ae576101008083540402835291602001916102d9565b820191906000526020600020905b8154815290600101906020018083116102bc57829003601f168201915b505050505081526020019060010190610241565b50505050815260200160008054610303906109b5565b80601f016020809104026020016040519081016040528092919081815260200182805461032f906109b5565b801561037c5780601f106103515761010080835404028352916020019161037c565b820191906000526020600020905b81548152906001019060200180831161035f57829003601f168201915b5050505050815250905090565b60606002805480602002602001604051908101604052809291908181526020016000905b828210156104595783829060005260206000200180546103cc906109b5565b80601f01602080910402602001604051908101604052809291908181526020018280546103f8906109b5565b80156104455780601f1061041a57610100808354040283529160200191610445565b820191906000526020600020905b81548152906001019060200180831161042857829003601f168201915b5050505050815260200190600101906103ad565b50505050905090565b6000805461046f906109b5565b80601f016020809104026020016040519081016040528092919081815260200182805461049b906109b5565b80156104e85780601f106104bd576101008083540402835291602001916104e8565b820191906000526020600020905b8154815290600101906020018083116104cb57829003601f168201915b505050505081565b60606001805480602002602001604051908101604052809291908181526020016000905b82821015610459578382906000526020600020018054610533906109b5565b80601f016020809104026020016040519081016040528092919081815260200182805461055f906109b5565b80156105ac5780601f10610581576101008083540402835291602001916105ac565b820191906000526020600020905b81548152906001019060200180831161058f57829003601f168201915b505050505081526020019060010190610514565b6040516375ad06d160e11b81526000906001600160a01b0384169063eb5a0da2906105f190339086906004016109ef565b602060405180830381865afa15801561060e573d6000803e3d6000fd5b505050506040513d601f19601f820116820180604052508101906106329190610a35565b905061c4e06106418242610a64565b101561066057604051635ada9a9960e01b815260040160405180910390fd5b6040516375ad06d160e11b81526000906001600160a01b0385169063eb5a0da2906106919033908790600401610a7d565b602060405180830381865afa1580156106ae573d6000803e3d6000fd5b505050506040513d601f19601f820116820180604052508101906106d29190610a35565b90506001600160a01b0384166323b2754e33856106f0856001610abf565b6040518463ffffffff1660e01b815260040161070e93929190610ad2565b600060405180830381600087803b15801561072857600080fd5b505af115801561073c573d6000803e3d6000fd5b50506040516311d93aa760e11b81526001600160a01b03871692506323b2754e915061077090339087904290600401610b20565b600060405180830381600087803b15801561078a57600080fd5b505af115801561079e573d6000803e3d6000fd5b5050505050505050565b600281815481106107b857600080fd5b90600052602060002001600091509050805461046f906109b5565b6000815180845260005b818110156107f9576020818501810151868301820152016107dd565b506000602082860101526020601f19601f83011685010191505092915050565b60008282518085526020808601955060208260051b8401016020860160005b8481101561086657601f198684030189526108548383516107d3565b98840198925090830190600101610838565b5090979650505050505050565b602080825282516001600160a01b031682820152820151608060408301526000906108a160a0840182610819565b90506040840151601f19808584030160608601526108bf8383610819565b92506060860151915080858403016080860152506108dd82826107d3565b95945050505050565b600060208083016020845280855180835260408601915060408160051b87010192506020870160005b8281101561093d57603f1988860301845261092b8583516107d3565b9450928501929085019060010161090f565b5092979650505050505050565b60208152600061095d60208301846107d3565b9392505050565b6000806040838503121561097757600080fd5b82356001600160a01b038116811461098e57600080fd5b946020939093013593505050565b6000602082840312156109ae57600080fd5b5035919050565b600181811c908216806109c957607f821691505b6020821081036109e957634e487b7160e01b600052602260045260246000fd5b50919050565b6001600160a01b038316815260208101829052606060408201819052600c908201526b1b185cdd1058dd1a5bdb905d60a21b6080820152600060a082015b949350505050565b600060208284031215610a4757600080fd5b5051919050565b634e487b7160e01b600052601160045260246000fd5b81810381811115610a7757610a77610a4e565b92915050565b6001600160a01b038316815260208101829052606060408201819052600c908201526b6461696c79416374696f6e7360a01b6080820152600060a08201610a2d565b80820180821115610a7757610a77610a4e565b6001600160a01b038416815260208101839052608060408201819052600c908201526b6461696c79416374696f6e7360a01b60a0820152600060c082015b9050826060830152949350505050565b6001600160a01b038416815260208101839052608060408201819052600c908201526b1b185cdd1058dd1a5bdb905d60a21b60a0820152600060c08201610b1056fea264697066735822122003955cd716ae8715af74512bff87247114327192d3e6291f0a0c0b6eed54eb7064736f6c63430008180033",
        "linkReferences": {}
    },
    "methodIdentifiers": {
        "dailyInteraction(address,uint256)": "a4bfe388",
        "displayName()": "4affb260",
        "functions(uint256)": "eac0bd90",
        "getProvidedFunctions()": "43dc8e77",
        "getRequiredStrings()": "73f5c253",
        "getSummary()": "4051ddac",
        "initialize()": "8129fc1c"
    },
    "id": 50
}