{"abi":[{"type":"function","name":"createEntity","inputs":[{"name":"_game","type":"address","internalType":"address"},{"name":"_displayName","type":"string","internalType":"string"},{"name":"_nft","type":"address","internalType":"address"},{"name":"stringKeys","type":"string[]","internalType":"string[]"},{"name":"numberKeys","type":"string[]","internalType":"string[]"}],"outputs":[{"name":"","type":"address","internalType":"address"}],"stateMutability":"nonpayable"},{"type":"function","name":"entityContract","inputs":[],"outputs":[{"name":"","type":"address","internalType":"address"}],"stateMutability":"view"},{"type":"function","name":"initialize","inputs":[{"name":"_entityContract","type":"address","internalType":"address"}],"outputs":[],"stateMutability":"nonpayable"},{"type":"function","name":"updateEntityContract","inputs":[{"name":"_entityContract","type":"address","internalType":"address"}],"outputs":[],"stateMutability":"nonpayable"}],"bytecode":{"object":"0x608060405234801561001057600080fd5b50610613806100206000396000f3fe608060405234801561001057600080fd5b506004361061004c5760003560e01c806354e1bea914610051578063ae0f282b14610080578063c4d66de814610080578063dc771a41146100b2575b600080fd5b61006461005f3660046103ce565b6100c5565b6040516001600160a01b03909116815260200160405180910390f35b6100b061008e3660046104b5565b600080546001600160a01b0319166001600160a01b0392909216919091179055565b005b600054610064906001600160a01b031681565b6000805481906100dd906001600160a01b03166102fe565b604051630f76f81b60e31b815290915081906001600160a01b03821690637bb7c0d890610114908e908e908e908e90600401610500565b600060405180830381600087803b15801561012e57600080fd5b505af1158015610142573d6000803e3d6000fd5b5050505060005b60ff81168711156101ec57816001600160a01b031663d9852f4b89898460ff1681811061017857610178610537565b905060200281019061018a919061054d565b6040518363ffffffff1660e01b81526004016101a7929190610594565b600060405180830381600087803b1580156101c157600080fd5b505af11580156101d5573d6000803e3d6000fd5b5050505080806101e4906105b0565b915050610149565b5060005b60ff811685111561029357816001600160a01b03166325a0235f87878460ff1681811061021f5761021f610537565b9050602002810190610231919061054d565b6040518363ffffffff1660e01b815260040161024e929190610594565b600060405180830381600087803b15801561026857600080fd5b505af115801561027c573d6000803e3d6000fd5b50505050808061028b906105b0565b9150506101f0565b50604051633c5c0f4960e21b81526001600160a01b0383811660048301528c169063f1703d2490602401600060405180830381600087803b1580156102d757600080fd5b505af11580156102eb573d6000803e3d6000fd5b50939d9c50505050505050505050505050565b600061030b600083610311565b92915050565b60006c5af43d3d93803e602a57fd5bf36021528160145273602c3d8160093d39f33d3d3d3d363d3d37363d736000526035600c84f090508061035b5763301164256000526004601cfd5b600060215292915050565b80356001600160a01b038116811461037d57600080fd5b919050565b60008083601f84011261039457600080fd5b50813567ffffffffffffffff8111156103ac57600080fd5b6020830191508360208260051b85010111156103c757600080fd5b9250929050565b60008060008060008060008060a0898b0312156103ea57600080fd5b6103f389610366565b9750602089013567ffffffffffffffff8082111561041057600080fd5b818b0191508b601f83011261042457600080fd5b81358181111561043357600080fd5b8c602082850101111561044557600080fd5b602083019950975061045960408c01610366565b965060608b013591508082111561046f57600080fd5b61047b8c838d01610382565b909650945060808b013591508082111561049457600080fd5b506104a18b828c01610382565b999c989b5096995094979396929594505050565b6000602082840312156104c757600080fd5b6104d082610366565b9392505050565b81835281816020850137506000828201602090810191909152601f909101601f19169091010190565b600060018060a01b038087168352606060208401526105236060840186886104d7565b915080841660408401525095945050505050565b634e487b7160e01b600052603260045260246000fd5b6000808335601e1984360301811261056457600080fd5b83018035915067ffffffffffffffff82111561057f57600080fd5b6020019150368190038213156103c757600080fd5b6020815260006105a86020830184866104d7565b949350505050565b600060ff821660ff81036105d457634e487b7160e01b600052601160045260246000fd5b6001019291505056fea2646970667358221220ed4532b173c561794deb186d8e081ca70cf06f20e095164419ae434d1375f98464736f6c63430008180033","linkReferences":{}},"methodIdentifiers":{"createEntity(address,string,address,string[],string[])":"54e1bea9","entityContract()":"dc771a41","initialize(address)":"c4d66de8","updateEntityContract(address)":"ae0f282b"},"id":43}