{"abi":[{"type":"function","name":"createEntity","inputs":[{"name":"_game","type":"address","internalType":"address"},{"name":"_displayName","type":"string","internalType":"string"},{"name":"_nft","type":"address","internalType":"address"},{"name":"numberKeys","type":"string[]","internalType":"string[]"}],"outputs":[{"name":"","type":"address","internalType":"address"}],"stateMutability":"nonpayable"},{"type":"function","name":"entityContract","inputs":[],"outputs":[{"name":"","type":"address","internalType":"address"}],"stateMutability":"view"},{"type":"function","name":"initialize","inputs":[{"name":"_entityContract","type":"address","internalType":"address"}],"outputs":[],"stateMutability":"nonpayable"},{"type":"function","name":"updateEntityContract","inputs":[{"name":"_entityContract","type":"address","internalType":"address"}],"outputs":[],"stateMutability":"nonpayable"}],"bytecode":{"object":"0x608060405234801561001057600080fd5b50610540806100206000396000f3fe608060405234801561001057600080fd5b506004361061004c5760003560e01c806345e775a014610051578063ae0f282b14610080578063c4d66de814610080578063dc771a41146100b2575b600080fd5b61006461005f366004610325565b6100c5565b6040516001600160a01b03909116815260200160405180910390f35b6100b061008e3660046103e2565b600080546001600160a01b0319166001600160a01b0392909216919091179055565b005b600054610064906001600160a01b031681565b6000805481906100dd906001600160a01b0316610255565b604051630f76f81b60e31b815290915081906001600160a01b03821690637bb7c0d890610114908c908c908c908c9060040161042d565b600060405180830381600087803b15801561012e57600080fd5b505af1158015610142573d6000803e3d6000fd5b5050505060005b60ff81168511156101ec57816001600160a01b03166325a0235f87878460ff1681811061017857610178610464565b905060200281019061018a919061047a565b6040518363ffffffff1660e01b81526004016101a79291906104c1565b600060405180830381600087803b1580156101c157600080fd5b505af11580156101d5573d6000803e3d6000fd5b5050505080806101e4906104dd565b915050610149565b50604051633c5c0f4960e21b81526001600160a01b0383811660048301528a169063f1703d2490602401600060405180830381600087803b15801561023057600080fd5b505af1158015610244573d6000803e3d6000fd5b50939b9a5050505050505050505050565b6000610262600083610268565b92915050565b60006c5af43d3d93803e602a57fd5bf36021528160145273602c3d8160093d39f33d3d3d3d363d3d37363d736000526035600c84f09050806102b25763301164256000526004601cfd5b600060215292915050565b80356001600160a01b03811681146102d457600080fd5b919050565b60008083601f8401126102eb57600080fd5b50813567ffffffffffffffff81111561030357600080fd5b6020830191508360208260051b850101111561031e57600080fd5b9250929050565b6000806000806000806080878903121561033e57600080fd5b610347876102bd565b9550602087013567ffffffffffffffff8082111561036457600080fd5b818901915089601f83011261037857600080fd5b81358181111561038757600080fd5b8a602082850101111561039957600080fd5b60208301975095506103ad60408a016102bd565b945060608901359150808211156103c357600080fd5b506103d089828a016102d9565b979a9699509497509295939492505050565b6000602082840312156103f457600080fd5b6103fd826102bd565b9392505050565b81835281816020850137506000828201602090810191909152601f909101601f19169091010190565b600060018060a01b03808716835260606020840152610450606084018688610404565b915080841660408401525095945050505050565b634e487b7160e01b600052603260045260246000fd5b6000808335601e1984360301811261049157600080fd5b83018035915067ffffffffffffffff8211156104ac57600080fd5b60200191503681900382131561031e57600080fd5b6020815260006104d5602083018486610404565b949350505050565b600060ff821660ff810361050157634e487b7160e01b600052601160045260246000fd5b6001019291505056fea264697066735822122011b951284ec32a2498c2379cbb0190bd1f67da14314f69b4d576acb55d35d35364736f6c63430008180033","linkReferences":{}},"methodIdentifiers":{"createEntity(address,string,address,string[])":"45e775a0","entityContract()":"dc771a41","initialize(address)":"c4d66de8","updateEntityContract(address)":"ae0f282b"},"id":41}