{"abi":[{"type":"function","name":"createGame","inputs":[{"name":"_gm","type":"address","internalType":"address"},{"name":"displayName","type":"string","internalType":"string"}],"outputs":[],"stateMutability":"nonpayable"},{"type":"function","name":"gameContract","inputs":[],"outputs":[{"name":"","type":"address","internalType":"address"}],"stateMutability":"view"},{"type":"function","name":"games","inputs":[{"name":"","type":"uint256","internalType":"uint256"}],"outputs":[{"name":"","type":"address","internalType":"contract IGame"}],"stateMutability":"view"},{"type":"function","name":"getGameCount","inputs":[],"outputs":[{"name":"","type":"uint256","internalType":"uint256"}],"stateMutability":"view"},{"type":"function","name":"getGames","inputs":[{"name":"startAt","type":"uint8","internalType":"uint8"}],"outputs":[{"name":"result","type":"tuple[10]","internalType":"struct GameSummary[10]","components":[{"name":"game","type":"address","internalType":"address"},{"name":"gm","type":"address","internalType":"address"},{"name":"displayName","type":"string","internalType":"string"},{"name":"availableFunctions","type":"tuple[]","internalType":"struct AddressKey[]","components":[{"name":"Address","type":"address","internalType":"address"},{"name":"Key","type":"string","internalType":"string"}]},{"name":"availableData","type":"tuple[]","internalType":"struct AddressKey[]","components":[{"name":"Address","type":"address","internalType":"address"},{"name":"Key","type":"string","internalType":"string"}]}]}],"stateMutability":"view"},{"type":"function","name":"initialize","inputs":[{"name":"_gameContract","type":"address","internalType":"address"}],"outputs":[],"stateMutability":"nonpayable"},{"type":"function","name":"updateGameContract","inputs":[{"name":"gameContract_","type":"address","internalType":"address"}],"outputs":[],"stateMutability":"nonpayable"},{"type":"event","name":"GameCreated","inputs":[{"name":"gm","type":"address","indexed":false,"internalType":"address"},{"name":"game","type":"address","indexed":false,"internalType":"address"}],"anonymous":false}],"bytecode":{"object":"0x608060405234801561001057600080fd5b50610a35806100206000396000f3fe608060405234801561001057600080fd5b506004361061007d5760003560e01c8063d3f330091161005b578063d3f3300914610104578063d583d237146100d2578063e87c0ee614610117578063ec06bb5d1461012857600080fd5b8063117a5b90146100825780639f8c4da5146100b2578063c4d66de8146100d2575b600080fd5b610095610090366004610419565b61013b565b6040516001600160a01b0390911681526020015b60405180910390f35b6100c56100c0366004610432565b610165565b6040516100a99190610521565b6101026100e03660046105ed565b600080546001600160a01b0319166001600160a01b0392909216919091179055565b005b600054610095906001600160a01b031681565b6001546040519081526020016100a9565b61010261013636600461060a565b610255565b6001818154811061014b57600080fd5b6000918252602090912001546001600160a01b0316905081565b61016d6103c9565b600a825b60015460ff8216108015610193575061018a84836106a5565b60ff168160ff16105b1561024e5760018160ff16815481106101ae576101ae6106be565b600091825260208220015460408051631014776b60e21b815290516001600160a01b0390921692634051ddac926004808401938290030181865afa1580156101fa573d6000803e3d6000fd5b505050506040513d6000823e601f3d908101601f1916820160405261022291908101906108c9565b838260ff16600a8110610237576102376106be565b602002015280610246816109a0565b915050610171565b5050919050565b6000805461026b906001600160a01b0316610361565b6040516379ccf11760e11b81529091506001600160a01b0382169063f399e22e9061029e908790879087906004016109bf565b600060405180830381600087803b1580156102b857600080fd5b505af11580156102cc573d6000803e3d6000fd5b50506001805480820182556000919091527fb10e2d527612073b26eecdfd717e6a320cf44b4afac2b0732d9fcbe2b7fa0cf60180546001600160a01b0319166001600160a01b0385811691821790925560408051928916835260208301919091527fb60d84e37a6658effce28870b1d123cb86f86409df5888679310c0f276e1f5d2935001905060405180910390a150505050565b600061036e600083610374565b92915050565b60006c5af43d3d93803e602a57fd5bf36021528160145273602c3d8160093d39f33d3d3d3d363d3d37363d736000526035600c84f09050806103be5763301164256000526004601cfd5b600060215292915050565b604051806101400160405280600a905b6040805160a08101825260008082526020820152606091810182905281810182905260808101919091528152602001906001900390816103d95790505090565b60006020828403121561042b57600080fd5b5035919050565b60006020828403121561044457600080fd5b813560ff8116811461045557600080fd5b9392505050565b60005b8381101561047757818101518382015260200161045f565b50506000910152565b6000815180845261049881602086016020860161045c565b601f01601f19169290920160200192915050565b600082825180855260208086019550808260051b84010181860160005b8481101561051457858303601f19018952815180516001600160a01b03168452840151604085850181905261050081860183610480565b9a86019a94505050908301906001016104c9565b5090979650505050505050565b6020808252600090610160830183820185845b600a8110156105c957868403601f19018352815180516001600160a01b03908116865286820151168686015260408082015160a0828801819052919061057c83890182610480565b925050506060808301518783038289015261059783826104ac565b92505050608080830151925086820381880152506105b581836104ac565b955050509184019190840190600101610534565b50919695505050505050565b6001600160a01b03811681146105ea57600080fd5b50565b6000602082840312156105ff57600080fd5b8135610455816105d5565b60008060006040848603121561061f57600080fd5b833561062a816105d5565b9250602084013567ffffffffffffffff8082111561064757600080fd5b818601915086601f83011261065b57600080fd5b81358181111561066a57600080fd5b87602082850101111561067c57600080fd5b6020830194508093505050509250925092565b634e487b7160e01b600052601160045260246000fd5b60ff818116838216019081111561036e5761036e61068f565b634e487b7160e01b600052603260045260246000fd5b634e487b7160e01b600052604160045260246000fd5b6040805190810167ffffffffffffffff8111828210171561070d5761070d6106d4565b60405290565b60405160a0810167ffffffffffffffff8111828210171561070d5761070d6106d4565b604051601f8201601f1916810167ffffffffffffffff8111828210171561075f5761075f6106d4565b604052919050565b8051610772816105d5565b919050565b600082601f83011261078857600080fd5b815167ffffffffffffffff8111156107a2576107a26106d4565b6107b5601f8201601f1916602001610736565b8181528460208386010111156107ca57600080fd5b6107db82602083016020870161045c565b949350505050565b600082601f8301126107f457600080fd5b8151602067ffffffffffffffff80831115610811576108116106d4565b8260051b610820838201610736565b938452858101830193838101908886111561083a57600080fd5b84880192505b858310156108bd578251848111156108585760008081fd5b88016040818b03601f19018113156108705760008081fd5b6108786106ea565b87830151610885816105d5565b815290820151908682111561089a5760008081fd5b6108a88c8984860101610777565b81890152845250509184019190840190610840565b98975050505050505050565b6000602082840312156108db57600080fd5b815167ffffffffffffffff808211156108f357600080fd5b9083019060a0828603121561090757600080fd5b61090f610713565b61091883610767565b815261092660208401610767565b602082015260408301518281111561093d57600080fd5b61094987828601610777565b60408301525060608301518281111561096157600080fd5b61096d878286016107e3565b60608301525060808301518281111561098557600080fd5b610991878286016107e3565b60808301525095945050505050565b600060ff821660ff81036109b6576109b661068f565b60010192915050565b6001600160a01b03841681526040602082018190528101829052818360608301376000818301606090810191909152601f909201601f191601019291505056fea2646970667358221220c74a74b40fb820e4137272262f78c01ee44c1ffc447735c8a1eb3d86d4298aa664736f6c63430008180033","linkReferences":{}},"methodIdentifiers":{"createGame(address,string)":"ec06bb5d","gameContract()":"d3f33009","games(uint256)":"117a5b90","getGameCount()":"e87c0ee6","getGames(uint8)":"9f8c4da5","initialize(address)":"c4d66de8","updateGameContract(address)":"d583d237"},"id":43}