{"abi":[{"type":"function","name":"DEFAULT_ADMIN_ROLE","inputs":[],"outputs":[{"name":"","type":"bytes32","internalType":"bytes32"}],"stateMutability":"view"},{"type":"function","name":"addEntity","inputs":[{"name":"entity","type":"address","internalType":"address"}],"outputs":[],"stateMutability":"nonpayable"},{"type":"function","name":"addModule","inputs":[{"name":"module","type":"address","internalType":"address"}],"outputs":[],"stateMutability":"nonpayable"},{"type":"function","name":"availableEntityData","inputs":[{"name":"","type":"string","internalType":"string"}],"outputs":[{"name":"","type":"address","internalType":"address"}],"stateMutability":"view"},{"type":"function","name":"availableFunctions","inputs":[{"name":"","type":"string","internalType":"string"}],"outputs":[{"name":"","type":"address","internalType":"address"}],"stateMutability":"view"},{"type":"function","name":"displayName","inputs":[],"outputs":[{"name":"","type":"string","internalType":"string"}],"stateMutability":"view"},{"type":"function","name":"entities","inputs":[{"name":"","type":"uint256","internalType":"uint256"}],"outputs":[{"name":"","type":"address","internalType":"contract BasicEntity"}],"stateMutability":"view"},{"type":"function","name":"getOwnedNumber","inputs":[{"name":"player","type":"address","internalType":"address"},{"name":"tokenId","type":"uint256","internalType":"uint256"},{"name":"key","type":"string","internalType":"string"}],"outputs":[{"name":"","type":"uint256","internalType":"uint256"}],"stateMutability":"view"},{"type":"function","name":"getOwnedString","inputs":[{"name":"player","type":"address","internalType":"address"},{"name":"tokenId","type":"uint256","internalType":"uint256"},{"name":"key","type":"string","internalType":"string"}],"outputs":[{"name":"","type":"string","internalType":"string"}],"stateMutability":"view"},{"type":"function","name":"getRoleAdmin","inputs":[{"name":"role","type":"bytes32","internalType":"bytes32"}],"outputs":[{"name":"","type":"bytes32","internalType":"bytes32"}],"stateMutability":"view"},{"type":"function","name":"getSummary","inputs":[],"outputs":[{"name":"","type":"tuple","internalType":"struct GameSummary","components":[{"name":"game","type":"address","internalType":"address"},{"name":"gm","type":"address","internalType":"address"},{"name":"displayName","type":"string","internalType":"string"},{"name":"availableFunctions","type":"tuple[]","internalType":"struct AddressKey[]","components":[{"name":"Address","type":"address","internalType":"address"},{"name":"Key","type":"string","internalType":"string"}]},{"name":"availableData","type":"tuple[]","internalType":"struct AddressKey[]","components":[{"name":"Address","type":"address","internalType":"address"},{"name":"Key","type":"string","internalType":"string"}]}]}],"stateMutability":"view"},{"type":"function","name":"gm","inputs":[],"outputs":[{"name":"","type":"address","internalType":"address"}],"stateMutability":"view"},{"type":"function","name":"grantRole","inputs":[{"name":"role","type":"bytes32","internalType":"bytes32"},{"name":"account","type":"address","internalType":"address"}],"outputs":[],"stateMutability":"nonpayable"},{"type":"function","name":"hasRole","inputs":[{"name":"role","type":"bytes32","internalType":"bytes32"},{"name":"account","type":"address","internalType":"address"}],"outputs":[{"name":"","type":"bool","internalType":"bool"}],"stateMutability":"view"},{"type":"function","name":"initialize","inputs":[{"name":"_gm","type":"address","internalType":"address"},{"name":"_displayName","type":"string","internalType":"string"}],"outputs":[],"stateMutability":"nonpayable"},{"type":"function","name":"modules","inputs":[{"name":"","type":"uint256","internalType":"uint256"}],"outputs":[{"name":"","type":"address","internalType":"contract DailyInteractionModule"}],"stateMutability":"view"},{"type":"function","name":"registerEntityData","inputs":[{"name":"entity","type":"address","internalType":"address"},{"name":"key","type":"string","internalType":"string"}],"outputs":[],"stateMutability":"nonpayable"},{"type":"function","name":"renounceRole","inputs":[{"name":"role","type":"bytes32","internalType":"bytes32"},{"name":"callerConfirmation","type":"address","internalType":"address"}],"outputs":[],"stateMutability":"nonpayable"},{"type":"function","name":"revokeRole","inputs":[{"name":"role","type":"bytes32","internalType":"bytes32"},{"name":"account","type":"address","internalType":"address"}],"outputs":[],"stateMutability":"nonpayable"},{"type":"function","name":"setOwnedNumber","inputs":[{"name":"player","type":"address","internalType":"address"},{"name":"tokenId","type":"uint256","internalType":"uint256"},{"name":"key","type":"string","internalType":"string"},{"name":"value","type":"uint256","internalType":"uint256"}],"outputs":[],"stateMutability":"nonpayable"},{"type":"function","name":"setOwnedString","inputs":[{"name":"player","type":"address","internalType":"address"},{"name":"tokenId","type":"uint256","internalType":"uint256"},{"name":"key","type":"string","internalType":"string"},{"name":"value","type":"string","internalType":"string"}],"outputs":[],"stateMutability":"nonpayable"},{"type":"function","name":"supportsInterface","inputs":[{"name":"interfaceId","type":"bytes4","internalType":"bytes4"}],"outputs":[{"name":"","type":"bool","internalType":"bool"}],"stateMutability":"view"},{"type":"event","name":"Initialized","inputs":[{"name":"version","type":"uint64","indexed":false,"internalType":"uint64"}],"anonymous":false},{"type":"event","name":"RoleAdminChanged","inputs":[{"name":"role","type":"bytes32","indexed":true,"internalType":"bytes32"},{"name":"previousAdminRole","type":"bytes32","indexed":true,"internalType":"bytes32"},{"name":"newAdminRole","type":"bytes32","indexed":true,"internalType":"bytes32"}],"anonymous":false},{"type":"event","name":"RoleGranted","inputs":[{"name":"role","type":"bytes32","indexed":true,"internalType":"bytes32"},{"name":"account","type":"address","indexed":true,"internalType":"address"},{"name":"sender","type":"address","indexed":true,"internalType":"address"}],"anonymous":false},{"type":"event","name":"RoleRevoked","inputs":[{"name":"role","type":"bytes32","indexed":true,"internalType":"bytes32"},{"name":"account","type":"address","indexed":true,"internalType":"address"},{"name":"sender","type":"address","indexed":true,"internalType":"address"}],"anonymous":false},{"type":"error","name":"AccessControlBadConfirmation","inputs":[]},{"type":"error","name":"AccessControlUnauthorizedAccount","inputs":[{"name":"account","type":"address","internalType":"address"},{"name":"neededRole","type":"bytes32","internalType":"bytes32"}]},{"type":"error","name":"InvalidInitialization","inputs":[]},{"type":"error","name":"MissingProperty","inputs":[]},{"type":"error","name":"NotInitializing","inputs":[]},{"type":"error","name":"PropertyAlreadyExists","inputs":[]}],"bytecode":{"object":"0x608060405234801561001057600080fd5b50611c9c806100206000396000f3fe608060405234801561001057600080fd5b50600436106101425760003560e01c806381b2248a116100b8578063c0129d431161007c578063c0129d43146102de578063d547741f146102f1578063eb5a0da214610304578063f1703d2414610317578063f399e22e1461032a578063f8584ae81461033d57600080fd5b806381b2248a1461028a5780638e27a70f1461029d57806391d14854146102b0578063a217fddf146102c3578063b9afb51c146102cb57600080fd5b80632b2a86091161010a5780632b2a8609146101db5780632f2ff15d1461022757806336568abe1461023a5780634051ddac1461024d5780634affb260146102625780636331883b1461027757600080fd5b806301ffc9a714610147578063025c667b1461016f5780631ed86f191461018457806323b2754e14610197578063248a9ca3146101aa575b600080fd5b61015a61015536600461132b565b610371565b60405190151581526020015b60405180910390f35b61018261017d36600461143d565b6103a8565b005b61018261019236600461148b565b6103ec565b6101826101a53660046114a6565b610611565b6101cd6101b8366004611505565b60009081526020819052604090206001015490565b604051908152602001610166565b61020f6101e936600461151e565b80516020818301810180516005825292820191909301209152546001600160a01b031681565b6040516001600160a01b039091168152602001610166565b61018261023536600461155b565b6106f9565b61018261024836600461155b565b610724565b61025561075c565b604051610166919061164c565b61026a610a43565b60405161016691906116c4565b61020f610285366004611505565b610ad1565b61020f610298366004611505565b610afb565b61026a6102ab3660046116d7565b610b0b565b61015a6102be36600461155b565b610c0a565b6101cd600081565b6101826102d936600461172e565b610c33565b60015461020f906001600160a01b031681565b6101826102ff36600461155b565b610ce4565b6101cd6103123660046116d7565b610d09565b61018261032536600461148b565b610dfa565b6101826103383660046117ac565b611145565b61020f61034b36600461151e565b80516020818301810180516007825292820191909301209152546001600160a01b031681565b60006001600160e01b03198216637965db0b60e01b14806103a257506301ffc9a760e01b6001600160e01b03198316145b92915050565b816005826040516103b9919061182f565b90815260405190819003602001902080546001600160a01b03929092166001600160a01b03199092169190911790555050565b60008190506000816001600160a01b03166343dc8e776040518163ffffffff1660e01b8152600401600060405180830381865afa158015610431573d6000803e3d6000fd5b505050506040513d6000823e601f3d908101601f191682016040526104599190810190611890565b905060005b81518160ff1610156105685760086040518060400160405280866001600160a01b03168152602001848460ff168151811061049b5761049b611953565b602090810291909101810151909152825460018082018555600094855293829020835160029092020180546001600160a01b0319166001600160a01b039092169190911781559082015191929091908201906104f790826119f3565b505050836007838360ff168151811061051257610512611953565b6020026020010151604051610527919061182f565b90815260405190819003602001902080546001600160a01b03929092166001600160a01b03199092169190911790558061056081611ab3565b91505061045e565b50816001600160a01b0316638129fc1c6040518163ffffffff1660e01b8152600401600060405180830381600087803b1580156105a457600080fd5b505af11580156105b8573d6000803e3d6000fd5b5050600480546001810182556000919091527f8a35acfbc15ff81a39ae7d344fd709f28e8600b4aa8c65c6b64bfe7fe36bd19b0180546001600160a01b0319166001600160a01b03959095169490941790935550505050565b6000600583604051610623919061182f565b908152604051908190036020018120546319acb3c760e11b8252600482018690526001600160a01b0387811660248401521691508190633359678e9060440160006040518083038186803b15801561067a57600080fd5b505afa15801561068e573d6000803e3d6000fd5b5050604051621f135b60e11b81526001600160a01b0384169250623e26b691506106c090879087908790600401611ae0565b600060405180830381600087803b1580156106da57600080fd5b505af11580156106ee573d6000803e3d6000fd5b505050505050505050565b600082815260208190526040902060010154610714816111e0565b61071e83836111ed565b50505050565b6001600160a01b038116331461074d5760405163334bd91960e11b815260040160405180910390fd5b610757828261127f565b505050565b6040805160a08101825260008082526020820152606091810182905281810182905260808101919091526040805160a0810182523081526001546001600160a01b031660208201526002805491928301916107b690611969565b80601f01602080910402602001604051908101604052809291908181526020018280546107e290611969565b801561082f5780601f106108045761010080835404028352916020019161082f565b820191906000526020600020905b81548152906001019060200180831161081257829003601f168201915b505050505081526020016008805480602002602001604051908101604052809291908181526020016000905b82821015610934576000848152602090819020604080518082019091526002850290910180546001600160a01b0316825260018101805492939192918401916108a390611969565b80601f01602080910402602001604051908101604052809291908181526020018280546108cf90611969565b801561091c5780601f106108f15761010080835404028352916020019161091c565b820191906000526020600020905b8154815290600101906020018083116108ff57829003601f168201915b5050505050815250508152602001906001019061085b565b5050505081526020016006805480602002602001604051908101604052809291908181526020016000905b82821015610a38576000848152602090819020604080518082019091526002850290910180546001600160a01b0316825260018101805492939192918401916109a790611969565b80601f01602080910402602001604051908101604052809291908181526020018280546109d390611969565b8015610a205780601f106109f557610100808354040283529160200191610a20565b820191906000526020600020905b815481529060010190602001808311610a0357829003601f168201915b5050505050815250508152602001906001019061095f565b505050915250919050565b60028054610a5090611969565b80601f0160208091040260200160405190810160405280929190818152602001828054610a7c90611969565b8015610ac95780601f10610a9e57610100808354040283529160200191610ac9565b820191906000526020600020905b815481529060010190602001808311610aac57829003601f168201915b505050505081565b60038181548110610ae157600080fd5b6000918252602090912001546001600160a01b0316905081565b60048181548110610ae157600080fd5b60606000600583604051610b1f919061182f565b908152604051908190036020018120546319acb3c760e11b8252600482018690526001600160a01b0387811660248401521691508190633359678e9060440160006040518083038186803b158015610b7657600080fd5b505afa158015610b8a573d6000803e3d6000fd5b50506040516395baf1cb60e01b81526001600160a01b03841692506395baf1cb9150610bbc9087908790600401611b09565b600060405180830381865afa158015610bd9573d6000803e3d6000fd5b505050506040513d6000823e601f3d908101601f19168201604052610c019190810190611b22565b95945050505050565b6000918252602082815260408084206001600160a01b0393909316845291905290205460ff1690565b6000600583604051610c45919061182f565b908152604051908190036020018120546319acb3c760e11b8252600482018690526001600160a01b0387811660248401521691508190633359678e9060440160006040518083038186803b158015610c9c57600080fd5b505afa158015610cb0573d6000803e3d6000fd5b505060405163d4e124a560e01b81526001600160a01b038416925063d4e124a591506106c090879087908790600401611b57565b600082815260208190526040902060010154610cff816111e0565b61071e838361127f565b600080600583604051610d1c919061182f565b908152604051908190036020018120546319acb3c760e11b8252600482018690526001600160a01b0387811660248401521691508190633359678e9060440160006040518083038186803b158015610d7357600080fd5b505afa158015610d87573d6000803e3d6000fd5b505060405163ca86d4b760e01b81526001600160a01b038416925063ca86d4b79150610db99087908790600401611b09565b602060405180830381865afa158015610dd6573d6000803e3d6000fd5b505050506040513d601f19601f82011682018060405250810190610c019190611b8c565b60008190506000816001600160a01b03166370876a896040518163ffffffff1660e01b8152600401600060405180830381865afa158015610e3f573d6000803e3d6000fd5b505050506040513d6000823e601f3d908101601f19168201604052610e679190810190611890565b905060005b81518160ff161015610f765760066040518060400160405280866001600160a01b03168152602001848460ff1681518110610ea957610ea9611953565b602090810291909101810151909152825460018082018555600094855293829020835160029092020180546001600160a01b0319166001600160a01b03909216919091178155908201519192909190820190610f0590826119f3565b505050836005838360ff1681518110610f2057610f20611953565b6020026020010151604051610f35919061182f565b90815260405190819003602001902080546001600160a01b03929092166001600160a01b031990921691909117905580610f6e81611ab3565b915050610e6c565b506000826001600160a01b031663bb486d756040518163ffffffff1660e01b8152600401600060405180830381865afa158015610fb7573d6000803e3d6000fd5b505050506040513d6000823e601f3d908101601f19168201604052610fdf9190810190611890565b905060005b81518160ff1610156110ee5760066040518060400160405280876001600160a01b03168152602001848460ff168151811061102157611021611953565b602090810291909101810151909152825460018082018555600094855293829020835160029092020180546001600160a01b0319166001600160a01b0390921691909117815590820151919290919082019061107d90826119f3565b505050846005838360ff168151811061109857611098611953565b60200260200101516040516110ad919061182f565b90815260405190819003602001902080546001600160a01b03929092166001600160a01b0319909216919091179055806110e681611ab3565b915050610fe4565b5050600380546001810182556000919091527fc2575a0e9e593c00f959f8c92f12db2869c3395a3b0502d05e2516446f71f85b0180546001600160a01b0319166001600160a01b0393909316929092179091555050565b63409feecd19805460038255801561117c5760018160011c14303b106111735763f92ee8a96000526004601cfd5b818160ff1b1b91505b50600180546001600160a01b0319166001600160a01b03861617905560026111a5838583611ba5565b50801561071e576002815560016020527fc7f505b2f371ae2175ee4913f4499e1f2633a7b5936321eed1cdaeb6115181d2602080a150505050565b6111ea81336112ea565b50565b60006111f98383610c0a565b611277576000838152602081815260408083206001600160a01b03861684529091529020805460ff1916600117905561122f3390565b6001600160a01b0316826001600160a01b0316847f2f8788117e7eff1d82e926ec794901d17c78024a50270940304540a733656f0d60405160405180910390a45060016103a2565b5060006103a2565b600061128b8383610c0a565b15611277576000838152602081815260408083206001600160a01b0386168085529252808320805460ff1916905551339286917ff6391f5c32d9c69d2a47ea670b442974b53935d1edc7fd64eb21e047a839171b9190a45060016103a2565b6112f48282610c0a565b6113275760405163e2517d3f60e01b81526001600160a01b03821660048201526024810183905260440160405180910390fd5b5050565b60006020828403121561133d57600080fd5b81356001600160e01b03198116811461135557600080fd5b9392505050565b80356001600160a01b038116811461137357600080fd5b919050565b634e487b7160e01b600052604160045260246000fd5b604051601f8201601f1916810167ffffffffffffffff811182821017156113b7576113b7611378565b604052919050565b600067ffffffffffffffff8211156113d9576113d9611378565b50601f01601f191660200190565b600082601f8301126113f857600080fd5b813561140b611406826113bf565b61138e565b81815284602083860101111561142057600080fd5b816020850160208301376000918101602001919091529392505050565b6000806040838503121561145057600080fd5b6114598361135c565b9150602083013567ffffffffffffffff81111561147557600080fd5b611481858286016113e7565b9150509250929050565b60006020828403121561149d57600080fd5b6113558261135c565b600080600080608085870312156114bc57600080fd5b6114c58561135c565b935060208501359250604085013567ffffffffffffffff8111156114e857600080fd5b6114f4878288016113e7565b949793965093946060013593505050565b60006020828403121561151757600080fd5b5035919050565b60006020828403121561153057600080fd5b813567ffffffffffffffff81111561154757600080fd5b611553848285016113e7565b949350505050565b6000806040838503121561156e57600080fd5b8235915061157e6020840161135c565b90509250929050565b60005b838110156115a257818101518382015260200161158a565b50506000910152565b600081518084526115c3816020860160208601611587565b601f01601f19169290920160200192915050565b600082825180855260208086019550808260051b84010181860160005b8481101561163f57858303601f19018952815180516001600160a01b03168452840151604085850181905261162b818601836115ab565b9a86019a94505050908301906001016115f4565b5090979650505050505050565b60208152600060018060a01b0380845116602084015280602085015116604084015250604083015160a0606084015261168860c08401826115ab565b90506060840151601f19808584030160808601526116a683836115d7565b925060808601519150808584030160a086015250610c0182826115d7565b60208152600061135560208301846115ab565b6000806000606084860312156116ec57600080fd5b6116f58461135c565b925060208401359150604084013567ffffffffffffffff81111561171857600080fd5b611724868287016113e7565b9150509250925092565b6000806000806080858703121561174457600080fd5b61174d8561135c565b935060208501359250604085013567ffffffffffffffff8082111561177157600080fd5b61177d888389016113e7565b9350606087013591508082111561179357600080fd5b506117a0878288016113e7565b91505092959194509250565b6000806000604084860312156117c157600080fd5b6117ca8461135c565b9250602084013567ffffffffffffffff808211156117e757600080fd5b818601915086601f8301126117fb57600080fd5b81358181111561180a57600080fd5b87602082850101111561181c57600080fd5b6020830194508093505050509250925092565b60008251611841818460208701611587565b9190910192915050565b600082601f83011261185c57600080fd5b815161186a611406826113bf565b81815284602083860101111561187f57600080fd5b611553826020830160208701611587565b600060208083850312156118a357600080fd5b825167ffffffffffffffff808211156118bb57600080fd5b818501915085601f8301126118cf57600080fd5b8151818111156118e1576118e1611378565b8060051b6118f085820161138e565b918252838101850191858101908984111561190a57600080fd5b86860192505b83831015611946578251858111156119285760008081fd5b6119368b89838a010161184b565b8352509186019190860190611910565b9998505050505050505050565b634e487b7160e01b600052603260045260246000fd5b600181811c9082168061197d57607f821691505b60208210810361199d57634e487b7160e01b600052602260045260246000fd5b50919050565b601f821115610757576000816000526020600020601f850160051c810160208610156119cc5750805b601f850160051c820191505b818110156119eb578281556001016119d8565b505050505050565b815167ffffffffffffffff811115611a0d57611a0d611378565b611a2181611a1b8454611969565b846119a3565b602080601f831160018114611a565760008415611a3e5750858301515b600019600386901b1c1916600185901b1785556119eb565b600085815260208120601f198616915b82811015611a8557888601518255948401946001909101908401611a66565b5085821015611aa35787850151600019600388901b60f8161c191681555b5050505050600190811b01905550565b600060ff821660ff8103611ad757634e487b7160e01b600052601160045260246000fd5b60010192915050565b838152606060208201526000611af960608301856115ab565b9050826040830152949350505050565b82815260406020820152600061155360408301846115ab565b600060208284031215611b3457600080fd5b815167ffffffffffffffff811115611b4b57600080fd5b6115538482850161184b565b838152606060208201526000611b7060608301856115ab565b8281036040840152611b8281856115ab565b9695505050505050565b600060208284031215611b9e57600080fd5b5051919050565b67ffffffffffffffff831115611bbd57611bbd611378565b611bd183611bcb8354611969565b836119a3565b6000601f841160018114611c055760008515611bed5750838201355b600019600387901b1c1916600186901b178355611c5f565b600083815260209020601f19861690835b82811015611c365786850135825560209485019460019092019101611c16565b5086821015611c535760001960f88860031b161c19848701351681555b505060018560011b0183555b505050505056fea2646970667358221220b5349c1d089b08eba72e0d9ab072a4e449db699129b58fc731bd97610169e94b64736f6c63430008180033","linkReferences":{}},"methodIdentifiers":{"DEFAULT_ADMIN_ROLE()":"a217fddf","addEntity(address)":"f1703d24","addModule(address)":"1ed86f19","availableEntityData(string)":"2b2a8609","availableFunctions(string)":"f8584ae8","displayName()":"4affb260","entities(uint256)":"6331883b","getOwnedNumber(address,uint256,string)":"eb5a0da2","getOwnedString(address,uint256,string)":"8e27a70f","getRoleAdmin(bytes32)":"248a9ca3","getSummary()":"4051ddac","gm()":"c0129d43","grantRole(bytes32,address)":"2f2ff15d","hasRole(bytes32,address)":"91d14854","initialize(address,string)":"f399e22e","modules(uint256)":"81b2248a","registerEntityData(address,string)":"025c667b","renounceRole(bytes32,address)":"36568abe","revokeRole(bytes32,address)":"d547741f","setOwnedNumber(address,uint256,string,uint256)":"23b2754e","setOwnedString(address,uint256,string,string)":"b9afb51c","supportsInterface(bytes4)":"01ffc9a7"},"id":44}