{"abi":[{"type":"function","name":"addEntity","inputs":[{"name":"entity","type":"address","internalType":"address"}],"outputs":[],"stateMutability":"nonpayable"},{"type":"function","name":"addModule","inputs":[{"name":"module","type":"address","internalType":"address"}],"outputs":[],"stateMutability":"nonpayable"},{"type":"function","name":"availableEntityData","inputs":[{"name":"","type":"string","internalType":"string"}],"outputs":[{"name":"","type":"address","internalType":"address"}],"stateMutability":"view"},{"type":"function","name":"availableFunctions","inputs":[{"name":"","type":"string","internalType":"string"}],"outputs":[{"name":"","type":"address","internalType":"address"}],"stateMutability":"view"},{"type":"function","name":"displayName","inputs":[],"outputs":[{"name":"","type":"string","internalType":"string"}],"stateMutability":"view"},{"type":"function","name":"entities","inputs":[{"name":"","type":"uint256","internalType":"uint256"}],"outputs":[{"name":"","type":"address","internalType":"contract INumberEntity"}],"stateMutability":"view"},{"type":"function","name":"getOwnedNumber","inputs":[{"name":"player","type":"address","internalType":"address"},{"name":"tokenId","type":"uint256","internalType":"uint256"},{"name":"key","type":"string","internalType":"string"}],"outputs":[{"name":"","type":"uint256","internalType":"uint256"}],"stateMutability":"view"},{"type":"function","name":"getSummary","inputs":[],"outputs":[{"name":"","type":"tuple","internalType":"struct GameSummary","components":[{"name":"game","type":"address","internalType":"address"},{"name":"gm","type":"address","internalType":"address"},{"name":"displayName","type":"string","internalType":"string"},{"name":"availableFunctions","type":"tuple[]","internalType":"struct AddressKey[]","components":[{"name":"Address","type":"address","internalType":"address"},{"name":"Key","type":"string","internalType":"string"}]},{"name":"availableData","type":"tuple[]","internalType":"struct AddressKey[]","components":[{"name":"Address","type":"address","internalType":"address"},{"name":"Key","type":"string","internalType":"string"}]}]}],"stateMutability":"view"},{"type":"function","name":"gm","inputs":[],"outputs":[{"name":"","type":"address","internalType":"address"}],"stateMutability":"view"},{"type":"function","name":"initialize","inputs":[{"name":"_gm","type":"address","internalType":"address"},{"name":"_displayName","type":"string","internalType":"string"}],"outputs":[],"stateMutability":"nonpayable"},{"type":"function","name":"modules","inputs":[{"name":"","type":"uint256","internalType":"uint256"}],"outputs":[{"name":"","type":"address","internalType":"contract IModule"}],"stateMutability":"view"},{"type":"function","name":"registerEntityData","inputs":[{"name":"entity","type":"address","internalType":"address"},{"name":"key","type":"string","internalType":"string"}],"outputs":[],"stateMutability":"nonpayable"},{"type":"function","name":"setOwnedNumber","inputs":[{"name":"player","type":"address","internalType":"address"},{"name":"tokenId","type":"uint256","internalType":"uint256"},{"name":"key","type":"string","internalType":"string"},{"name":"value","type":"uint256","internalType":"uint256"}],"outputs":[],"stateMutability":"nonpayable"},{"type":"event","name":"Initialized","inputs":[{"name":"version","type":"uint64","indexed":false,"internalType":"uint64"}],"anonymous":false},{"type":"error","name":"InvalidInitialization","inputs":[]},{"type":"error","name":"NotInitializing","inputs":[]}],"bytecode":{"object":"0x608060405234801561001057600080fd5b506114d0806100206000396000f3fe608060405234801561001057600080fd5b50600436106100cf5760003560e01c80636331883b1161008c578063eb5a0da211610066578063eb5a0da2146101c3578063f1703d24146101e4578063f399e22e146101f7578063f8584ae81461020a57600080fd5b80636331883b1461018a57806381b2248a1461019d578063c0129d43146101b057600080fd5b8063025c667b146100d45780631ed86f19146100e957806323b2754e146100fc5780632b2a86091461010f5780634051ddac146101605780634affb26014610175575b600080fd5b6100e76100e2366004610d86565b61023e565b005b6100e76100f7366004610dd4565b610282565b6100e761010a366004610df6565b6104a7565b61014361011d366004610e55565b80516020818301810180516004825292820191909301209152546001600160a01b031681565b6040516001600160a01b0390911681526020015b60405180910390f35b61016861058f565b6040516101579190610f57565b61017d610876565b6040516101579190610fcf565b610143610198366004610fe2565b610904565b6101436101ab366004610fe2565b61092e565b600054610143906001600160a01b031681565b6101d66101d1366004610ffb565b61093e565b604051908152602001610157565b6100e76101f2366004610dd4565b610a38565b6100e7610205366004611052565b610c09565b610143610218366004610e55565b80516020818301810180516006825292820191909301209152546001600160a01b031681565b8160048260405161024f91906110d5565b90815260405190819003602001902080546001600160a01b03929092166001600160a01b03199092169190911790555050565b60008190506000816001600160a01b03166343dc8e776040518163ffffffff1660e01b8152600401600060405180830381865afa1580156102c7573d6000803e3d6000fd5b505050506040513d6000823e601f3d908101601f191682016040526102ef91908101906110f1565b905060005b81518160ff1610156103fe5760076040518060400160405280866001600160a01b03168152602001848460ff1681518110610331576103316111f0565b602090810291909101810151909152825460018082018555600094855293829020835160029092020180546001600160a01b0319166001600160a01b0390921691909117815590820151919290919082019061038d9082611291565b505050836006838360ff16815181106103a8576103a86111f0565b60200260200101516040516103bd91906110d5565b90815260405190819003602001902080546001600160a01b03929092166001600160a01b0319909216919091179055806103f681611351565b9150506102f4565b50816001600160a01b0316638129fc1c6040518163ffffffff1660e01b8152600401600060405180830381600087803b15801561043a57600080fd5b505af115801561044e573d6000803e3d6000fd5b5050600380546001810182556000919091527fc2575a0e9e593c00f959f8c92f12db2869c3395a3b0502d05e2516446f71f85b0180546001600160a01b0319166001600160a01b03959095169490941790935550505050565b60006004836040516104b991906110d5565b908152604051908190036020018120546319acb3c760e11b8252600482018690526001600160a01b0387811660248401521691508190633359678e9060440160006040518083038186803b15801561051057600080fd5b505afa158015610524573d6000803e3d6000fd5b5050604051621f135b60e11b81526001600160a01b0384169250623e26b691506105569087908790879060040161137e565b600060405180830381600087803b15801561057057600080fd5b505af1158015610584573d6000803e3d6000fd5b505050505050505050565b6040805160a08101825260008082526020820152606091810182905281810182905260808101919091526040805160a0810182523081526000546001600160a01b031660208201526001805491928301916105e990611206565b80601f016020809104026020016040519081016040528092919081815260200182805461061590611206565b80156106625780601f1061063757610100808354040283529160200191610662565b820191906000526020600020905b81548152906001019060200180831161064557829003601f168201915b505050505081526020016007805480602002602001604051908101604052809291908181526020016000905b82821015610767576000848152602090819020604080518082019091526002850290910180546001600160a01b0316825260018101805492939192918401916106d690611206565b80601f016020809104026020016040519081016040528092919081815260200182805461070290611206565b801561074f5780601f106107245761010080835404028352916020019161074f565b820191906000526020600020905b81548152906001019060200180831161073257829003601f168201915b5050505050815250508152602001906001019061068e565b5050505081526020016005805480602002602001604051908101604052809291908181526020016000905b8282101561086b576000848152602090819020604080518082019091526002850290910180546001600160a01b0316825260018101805492939192918401916107da90611206565b80601f016020809104026020016040519081016040528092919081815260200182805461080690611206565b80156108535780601f1061082857610100808354040283529160200191610853565b820191906000526020600020905b81548152906001019060200180831161083657829003601f168201915b50505050508152505081526020019060010190610792565b505050915250919050565b6001805461088390611206565b80601f01602080910402602001604051908101604052809291908181526020018280546108af90611206565b80156108fc5780601f106108d1576101008083540402835291602001916108fc565b820191906000526020600020905b8154815290600101906020018083116108df57829003601f168201915b505050505081565b6002818154811061091457600080fd5b6000918252602090912001546001600160a01b0316905081565b6003818154811061091457600080fd5b60008060048360405161095191906110d5565b908152604051908190036020018120546319acb3c760e11b8252600482018690526001600160a01b0387811660248401521691508190633359678e9060440160006040518083038186803b1580156109a857600080fd5b505afa1580156109bc573d6000803e3d6000fd5b505060405163ca86d4b760e01b81526001600160a01b038416925063ca86d4b791506109ee90879087906004016113a7565b602060405180830381865afa158015610a0b573d6000803e3d6000fd5b505050506040513d601f19601f82011682018060405250810190610a2f91906113c0565b95945050505050565b60008190506000816001600160a01b031663bb486d756040518163ffffffff1660e01b8152600401600060405180830381865afa158015610a7d573d6000803e3d6000fd5b505050506040513d6000823e601f3d908101601f19168201604052610aa591908101906110f1565b905060005b81518160ff161015610bb45760056040518060400160405280866001600160a01b03168152602001848460ff1681518110610ae757610ae76111f0565b602090810291909101810151909152825460018082018555600094855293829020835160029092020180546001600160a01b0319166001600160a01b03909216919091178155908201519192909190820190610b439082611291565b505050836004838360ff1681518110610b5e57610b5e6111f0565b6020026020010151604051610b7391906110d5565b90815260405190819003602001902080546001600160a01b03929092166001600160a01b031990921691909117905580610bac81611351565b915050610aaa565b5050600280546001810182556000919091527f405787fa12a823e0f2b7631cc41b3ba8828b3321ca811111fa75cd3aa3bb5ace0180546001600160a01b0319166001600160a01b039290921691909117905550565b63409feecd198054600382558015610c405760018160011c14303b10610c375763f92ee8a96000526004601cfd5b818160ff1b1b91505b50600080546001600160a01b0319166001600160a01b0386161790556001610c698385836113d9565b508015610c9f576002815560016020527fc7f505b2f371ae2175ee4913f4499e1f2633a7b5936321eed1cdaeb6115181d2602080a15b50505050565b80356001600160a01b0381168114610cbc57600080fd5b919050565b634e487b7160e01b600052604160045260246000fd5b604051601f8201601f1916810167ffffffffffffffff81118282101715610d0057610d00610cc1565b604052919050565b600067ffffffffffffffff821115610d2257610d22610cc1565b50601f01601f191660200190565b600082601f830112610d4157600080fd5b8135610d54610d4f82610d08565b610cd7565b818152846020838601011115610d6957600080fd5b816020850160208301376000918101602001919091529392505050565b60008060408385031215610d9957600080fd5b610da283610ca5565b9150602083013567ffffffffffffffff811115610dbe57600080fd5b610dca85828601610d30565b9150509250929050565b600060208284031215610de657600080fd5b610def82610ca5565b9392505050565b60008060008060808587031215610e0c57600080fd5b610e1585610ca5565b935060208501359250604085013567ffffffffffffffff811115610e3857600080fd5b610e4487828801610d30565b949793965093946060013593505050565b600060208284031215610e6757600080fd5b813567ffffffffffffffff811115610e7e57600080fd5b610e8a84828501610d30565b949350505050565b60005b83811015610ead578181015183820152602001610e95565b50506000910152565b60008151808452610ece816020860160208601610e92565b601f01601f19169290920160200192915050565b600082825180855260208086019550808260051b84010181860160005b84811015610f4a57858303601f19018952815180516001600160a01b031684528401516040858501819052610f3681860183610eb6565b9a86019a9450505090830190600101610eff565b5090979650505050505050565b60208152600060018060a01b0380845116602084015280602085015116604084015250604083015160a06060840152610f9360c0840182610eb6565b90506060840151601f1980858403016080860152610fb18383610ee2565b925060808601519150808584030160a086015250610a2f8282610ee2565b602081526000610def6020830184610eb6565b600060208284031215610ff457600080fd5b5035919050565b60008060006060848603121561101057600080fd5b61101984610ca5565b925060208401359150604084013567ffffffffffffffff81111561103c57600080fd5b61104886828701610d30565b9150509250925092565b60008060006040848603121561106757600080fd5b61107084610ca5565b9250602084013567ffffffffffffffff8082111561108d57600080fd5b818601915086601f8301126110a157600080fd5b8135818111156110b057600080fd5b8760208285010111156110c257600080fd5b6020830194508093505050509250925092565b600082516110e7818460208701610e92565b9190910192915050565b6000602080838503121561110457600080fd5b825167ffffffffffffffff8082111561111c57600080fd5b818501915085601f83011261113057600080fd5b81518181111561114257611142610cc1565b8060051b611151858201610cd7565b918252838101850191858101908984111561116b57600080fd5b86860192505b838310156111e3578251858111156111895760008081fd5b8601603f81018b1361119b5760008081fd5b8781015160406111ad610d4f83610d08565b8281528d828486010111156111c25760008081fd5b6111d1838c8301848701610e92565b85525050509186019190860190611171565b9998505050505050505050565b634e487b7160e01b600052603260045260246000fd5b600181811c9082168061121a57607f821691505b60208210810361123a57634e487b7160e01b600052602260045260246000fd5b50919050565b601f82111561128c576000816000526020600020601f850160051c810160208610156112695750805b601f850160051c820191505b8181101561128857828155600101611275565b5050505b505050565b815167ffffffffffffffff8111156112ab576112ab610cc1565b6112bf816112b98454611206565b84611240565b602080601f8311600181146112f457600084156112dc5750858301515b600019600386901b1c1916600185901b178555611288565b600085815260208120601f198616915b8281101561132357888601518255948401946001909101908401611304565b50858210156113415787850151600019600388901b60f8161c191681555b5050505050600190811b01905550565b600060ff821660ff810361137557634e487b7160e01b600052601160045260246000fd5b60010192915050565b8381526060602082015260006113976060830185610eb6565b9050826040830152949350505050565b828152604060208201526000610e8a6040830184610eb6565b6000602082840312156113d257600080fd5b5051919050565b67ffffffffffffffff8311156113f1576113f1610cc1565b611405836113ff8354611206565b83611240565b6000601f84116001811461143957600085156114215750838201355b600019600387901b1c1916600186901b178355611493565b600083815260209020601f19861690835b8281101561146a578685013582556020948501946001909201910161144a565b50868210156114875760001960f88860031b161c19848701351681555b505060018560011b0183555b505050505056fea2646970667358221220c18aed86d18bd9174bda58773b6638499b0d6c1c6715e97b36a9c162b33a3cc664736f6c63430008180033","linkReferences":{}},"methodIdentifiers":{"addEntity(address)":"f1703d24","addModule(address)":"1ed86f19","availableEntityData(string)":"2b2a8609","availableFunctions(string)":"f8584ae8","displayName()":"4affb260","entities(uint256)":"6331883b","getOwnedNumber(address,uint256,string)":"eb5a0da2","getSummary()":"4051ddac","gm()":"c0129d43","initialize(address,string)":"f399e22e","modules(uint256)":"81b2248a","registerEntityData(address,string)":"025c667b","setOwnedNumber(address,uint256,string,uint256)":"23b2754e"},"id":42}