{"abi":[{"type":"function","name":"getModuleCount","inputs":[],"outputs":[{"name":"","type":"uint256","internalType":"uint256"}],"stateMutability":"view"},{"type":"function","name":"getModules","inputs":[{"name":"startAt","type":"uint8","internalType":"uint8"}],"outputs":[{"name":"result","type":"tuple[10]","internalType":"struct ModuleSummary[10]","components":[{"name":"module","type":"address","internalType":"address"},{"name":"functions","type":"string[]","internalType":"string[]"},{"name":"required","type":"string[]","internalType":"string[]"},{"name":"displayName","type":"string","internalType":"string"}]}],"stateMutability":"view"},{"type":"function","name":"initialize","inputs":[],"outputs":[],"stateMutability":"nonpayable"},{"type":"function","name":"register","inputs":[{"name":"module","type":"address","internalType":"address"}],"outputs":[],"stateMutability":"nonpayable"},{"type":"event","name":"Initialized","inputs":[{"name":"version","type":"uint64","indexed":false,"internalType":"uint64"}],"anonymous":false},{"type":"event","name":"ModuleRegistered","inputs":[{"name":"module","type":"address","indexed":false,"internalType":"address"}],"anonymous":false},{"type":"error","name":"InvalidInitialization","inputs":[]},{"type":"error","name":"NotInitializing","inputs":[]}],"bytecode":{"object":"0x608060405234801561001057600080fd5b50610771806100206000396000f3fe608060405234801561001057600080fd5b506004361061004c5760003560e01c80631f08998a146100515780634420e4861461007a57806357d562671461008f5780638129fc1c146100a0575b600080fd5b61006461005f3660046102e3565b6100a8565b60405161007191906103b7565b60405180910390f35b61008d610088366004610471565b610198565b005b600054604051908152602001610071565b61008d610219565b6100b0610289565b600a825b60005460ff82161080156100d657506100cd84836104a4565b60ff168160ff16105b156101915760008160ff16815481106100f1576100f16104c3565b600091825260208220015460408051631014776b60e21b815290516001600160a01b0390921692634051ddac926004808401938290030181865afa15801561013d573d6000803e3d6000fd5b505050506040513d6000823e601f3d908101601f191682016040526101659190810190610654565b838260ff16600a811061017a5761017a6104c3565b6020020152806101898161071c565b9150506100b4565b5050919050565b600080546001810182559080527f290decd9548b62a8d60345a988386fc84ba6bc95484008f6362f93160ef3e5630180546001600160a01b0319166001600160a01b0383169081179091556040519081527f0961fbae397458c42f3f186eaabee4a989aafde93ac5d8d122cff462423a241e9060200160405180910390a150565b63409feecd1980546003825580156102505760018160011c14303b106102475763f92ee8a96000526004601cfd5b818160ff1b1b91505b508015610286576002815560016020527fc7f505b2f371ae2175ee4913f4499e1f2633a7b5936321eed1cdaeb6115181d2602080a15b50565b604051806101400160405280600a905b6102cd604051806080016040528060006001600160a01b031681526020016060815260200160608152602001606081525090565b8152602001906001900390816102995790505090565b6000602082840312156102f557600080fd5b813560ff8116811461030657600080fd5b9392505050565b60005b83811015610328578181015183820152602001610310565b50506000910152565b6000815180845261034981602086016020860161030d565b601f01601f19169290920160200192915050565b60008282518085526020808601955060208260051b8401016020860160005b848110156103aa57601f19868403018952610398838351610331565b9884019892509083019060010161037c565b5090979650505050505050565b6020808252600090610160830183820185845b600a81101561045057868403601f19018352815180516001600160a01b03168552858101516080878701819052906104048288018261035d565b9150506040808301518783038289015261041e838261035d565b925050506060808301519250868203818801525061043c8183610331565b9550505091840191908401906001016103ca565b50919695505050505050565b6001600160a01b038116811461028657600080fd5b60006020828403121561048357600080fd5b81356103068161045c565b634e487b7160e01b600052601160045260246000fd5b60ff81811683821601908111156104bd576104bd61048e565b92915050565b634e487b7160e01b600052603260045260246000fd5b634e487b7160e01b600052604160045260246000fd5b6040516080810167ffffffffffffffff81118282101715610512576105126104d9565b60405290565b604051601f8201601f1916810167ffffffffffffffff81118282101715610541576105416104d9565b604052919050565b600082601f83011261055a57600080fd5b815167ffffffffffffffff811115610574576105746104d9565b610587601f8201601f1916602001610518565b81815284602083860101111561059c57600080fd5b6105ad82602083016020870161030d565b949350505050565b600082601f8301126105c657600080fd5b8151602067ffffffffffffffff808311156105e3576105e36104d9565b8260051b6105f2838201610518565b938452858101830193838101908886111561060c57600080fd5b84880192505b858310156106485782518481111561062a5760008081fd5b6106388a87838c0101610549565b8352509184019190840190610612565b98975050505050505050565b60006020828403121561066657600080fd5b815167ffffffffffffffff8082111561067e57600080fd5b908301906080828603121561069257600080fd5b61069a6104ef565b82516106a58161045c565b81526020830151828111156106b957600080fd5b6106c5878286016105b5565b6020830152506040830151828111156106dd57600080fd5b6106e9878286016105b5565b60408301525060608301518281111561070157600080fd5b61070d87828601610549565b60608301525095945050505050565b600060ff821660ff81036107325761073261048e565b6001019291505056fea26469706673582212201f48bf1d2b8ef1206fb99db348344d4287e6d01e8ab672387c1123c7523bc1e664736f6c63430008180033","linkReferences":{}},"methodIdentifiers":{"getModuleCount()":"57d56267","getModules(uint8)":"1f08998a","initialize()":"8129fc1c","register(address)":"4420e486"},"id":44}